:100000000DC032C031C030C02FC02EC02DC02CC09A
:100010002BC02AC029C000400042800011271FBF0A
:10002000CFE5D0E0DEBFCDBFC6E1D0E440E415C0EF
:10003000B991A99139912991099107FD0AC0F991C6
:10004000E991E050F04C51915D93A217B307D9F7B5
:1000500004C01D93A217B307E1F7CB31D40741F7D2
:08006000ABD0E3C0F894FFCF20
:02006800CBCFFC
:10006A002F933F93CF93DF9300D00F93CDB7DEB793
:10007A0040E5CF5FDF4F4883C150D040E62FF0E024
:10008A00672F70E0282F30E0492F50E0CD5FDF4F17
:10009A0058834A93C250D04047E050E008C000005D
:1000AA0000000000000010984150510B80F0AE2F64
:1000BA00BF2F042F02C0B595A7950A95E2F7109AAB
:1000CA00A0FDEDCF000010984150510B80F747E09A
:1000DA0050E008C0000000000000000010984150E5
:1000EA00510B80F0A62FB72F042F02C0B595A79504
:1000FA000A95E2F7109AA0FDEDCF00001098415042
:10010A00510B80F747E050E008C0000000000000F3
:10011A00000010984150510B80F0A22FB32F042FEA
:10012A0002C0B595A7950A95E2F7109AA0FDEDCF02
:10013A00000010984150510B80F747E050E008C08A
:10014A00000000000000000010984150510BA0F080
:10015A00CE5FDF4FA991B881C350D040042F02C0AF
:10016A00B595A7950A95E2F7109AA0FDE9CF000088
:10017A0010984150510B60F7CF5FDF4F4881C15053
:10018A00D0404150CF5FDF4F4883C150D040411328
:10019A0083CF109A55ED5A95F1F7000010980F91F8
:0E01AA000F910F91DF91CF913F912F9108950A
:1001B80048ED4CBF16BF089A0A9850E018C0511372
:1001C80002C041E040A990A1692F990F770B41A186
:1001D800640F711F6F3F710709F0E4F477FF1CC0CB
:1001E80090E091A9692F792F892F3BDF5C2F40B1CF
:1001F80042FBCC27C0F942FDE2CF552321F34FEF54
:1002080040A96FEF7FEF41A1640F711F6F3F710726
:0C02180029F324F39FEFE5CF962FE3CFEE
:0202240008953B
:02022600089539
:02022800089537
:10022A00C82FD92FFBDFF9DF8C2F9D2FF8DF8C2FFA
:04023A009D2F00D024
:02023E0012DFCD
:00000001FF
